:10000000008000208D840000B9840000B9840000C5
:10001000B9840000B9840000B9840000B9840000EC
:10002000B9840000B9840000B9840000B9840000DC
:10003000B9840000B9840000B9840000B9840000CC
:10004000B984000031090000B9840000B9840000BF
:10005000B9840000B9840000B9840000B9840000AC
:10006000B9840000B9840000B9840000910900003F
:10007000B9840000B9840000B9840000B92B0000E5
:10008000A52C000015510000B9840000B9840000BF
:10009000B9840000B9840000B9840000B98400006C
:1000A00041270000B9840000B9840000B984000031
:1000B000B9840000B98400009D5A0000B984000092
:1000C000B9840000B9840000B9840000B98400003C
:1000D000B9840000B9840000B9840000B98400002C
:1000E00010B5054C237833B9044B13B10448AFF372
:1000F00000800123237010BD0801002000000000D3
:10010000A0B0000008B5064B1BB106480649AFF386
:1001100000800648036813B1054B03B1984708BD3A
:1001200000000000A0B000000C0100200001002031
:1001300000000000154B002B08BF134B9D46A3F594
:10014000803A00218B460F461348144A121A08F0D1
:10015000BDFE0F4B002B00D098470E4B002B00D05C
:1001600098470020002104000D000D48002802D00F
:100170000C48AFF3008008F06BFE2000290002F06D
:100180002FF908F065FD00BF000008000080002086
:10019000000000000000000008010020F46B0020B7
:1001A000000000000000000080B400AF72B6084BF1
:1001B0001B68B3F1FF3F04D0054B1B685A1C044B6E
:1001C0001A60034B1B681846BD465DF8047B7047F8
:1001D000780B002080B483B000AF0C4B1B68002B61
:1001E0000DD00A4B1B685A1E084B1A60074B1B6840
:1001F0007B607B68002B00D162B67B6800E0002347
:1002000018460C37BD465DF8047B7047780B00201C
:1002100080B584B000AF786039607B68FB60F868B7
:1002200000213A6808F052FE3B68A3F11002FB6817
:100230001A60FB6800225A60FB6800229A60FB6823
:100240000022DA60FB6818461037BD4680BD00BF4B
:1002500080B483B000AF78607B685A687B681B68A5
:100260009A4214BF00230123DBB218460C37BD4667
:100270005DF8047B704700BF80B483B000AF786046
:100280007B685B68002B14BF00230123DBB2184698
:100290000C37BD465DF8047B704700BF80B582B067
:1002A00000AF78600B46FB707B685A687B681B6800
:1002B0009A4201D300231BE07B689B68591C7A6833
:1002C00091607A681344FA781A747B689A687B683C
:1002D0001B689A4202D37B6800229A60FFF764FF92
:1002E0007B685B685A1C7B685A60FFF773FF0123C9
:1002F00018460837BD4680BD80B582B000AF786033
:1003000039607B685B68002B01D100231CE07B68AF
:10031000DB68591C7A68D1607A6813441A7C3B68A0
:100320001A707B68DA687B681B689A4202D37B6824
:100330000022DA60FFF738FF7B685B685A1E7B6833
:100340005A60FFF747FF012318460837BD4680BDB6
:1003500080B582B000AF78600B46FB70FB787868A0
:100360001946FFF79BFF034618460837BD4680BD78
:1003700080B485B000AF786039607B6803F10473A6
:10038000DA003B6813449B00FB60FB681B6818465F
:100390001437BD465DF8047B704700BF80B582B05E
:1003A00000AF03463960FB71FB79002B1FD0FB794E
:1003B000012B19D0FB79022B13D0FB79032B0DD025
:1003C000FB79042B07D0FB79052B02D141F6FF7393
:1003D0000FE000230DE04FF6FF730AE04FF6FF73C6
:1003E00007E04FF6FF7304E04FF6FF7301E04FF6AE
:1003F000FF733A68134103F00103002B04D10C484A
:1004000040F2A62106F03EF8FA791346DB001344C9
:100410009B001C3303F1804303F5C0431846396841
:10042000FFF7A6FF034618460837BD4680BD00BF4C
:10043000D49A000080B586B000AF78607B687B619D
:100440007B69DA000F4B13443B613B691A783B69C7
:100450005B6810461946FFF7A1FF0346002B14BF47
:1004600000230123DBB2FB60074B1B68FA68002AFC
:100470000CBF00220122D2B2786911469847183782
:10048000BD4680BD249B00002401002080B584B0BF
:1004900002AF7860124B7A681A6001200921114A74
:1004A000002300F0BBFA01200A210E4A012300F0CC
:1004B000B5FA0D48022100F01FFA01230093012034
:1004C00009210122012307F071FA01230093012081
:1004D0000A210122012307F069FA0837BD4680BDD1
:1004E00024010020350400000000002080B500AF8A
:1004F000044805F0B5F80346002B02D0024800F08E
:100500009FF980BD28010020349B000080B483B097
:1005100000AF78603960044B01221A700C37BD4679
:100520005DF8047B704700BF2C01002080B586B0C9
:1005300002AF7860796808464FF00001CB0343EAC8
:100540005043C20312F57A5243F100031046194694
:100550004FF4FA424FF0000308F096F802460B46BB
:100560001346FB60114B00221A70114B1B680022CE
:10057000009218460021FA680E4B05F005F9034673
:10058000002B03D00C4800F05BF903E002E00120EF
:1005900007F054F8054B1B78DBB283F00103DBB2A4
:1005A000002BF4D11037BD4680BD00BF2C010020C8
:1005B000280100200D050000509B000080B582B08E
:1005C00000AF3B1D022019460022002303F01CFB54
:1005D0003B791A467B79054811461A4608F0D2FC49
:1005E00002F038F90837BD4680BD00BF789B000097
:1005F00080B500AF084808F0C5FC02F02BF90120D7
:100600000021002203F0A2FA044808F0BBFC02F02B
:1006100021F9FFF7D3FF80BD909B0000A89B00004D
:1006200080B584B002AF4FF480733B606E48012107
:1006300006F0FCFA6D48022106F034FD6C480221F8
:1006400006F030FD4FF47A7300934FF41650694969
:10065000C822694B02F0A4F8684808F093FC684887
:1006600003F0C4FB0346002B03D1664808F08AFC64
:10067000FEE7FFF7A3FF644808F084FC0023009323
:1006800000204FF40051614A002302F00FFE604841
:1006900008F078FC02F0DEF85E4808F073FC3B6876
:1006A000B3F5005F03D05C48396808F06BFC5B4829
:1006B00008F068FC3B6855481946002200F0CAF96A
:1006C00002F0C8F8564808F05DFC002300930023B0
:1006D000019300204FF400510022012302F04EFF4D
:1006E000504808F04FFC02F0B5F8FFF767FF474BA2
:1006F0001B7801334C48194608F044FC4B4B1B78DF
:100700000133DAB2494B1A7001237B600CE07B683D
:10071000013B464AD35C0133DAB244497B680B445F
:100720001A707B6801337B607B68B3F5005FEED3A2
:1007300002F090F8FFF75CFF3D4808F023FC002032
:1007400000210022002303F019FAFFF737FF394890
:1007500008F018FC02F07EF80023009300230193B8
:1007600000204FF40051314A012303F0E1F83248F0
:1007700008F008FC02F06EF8FFF720FF224808F0AE
:1007800001FC02F067F80023009300204FF40051B1
:100790002A4A002302F08AFD1D4808F0F3FB02F00C
:1007A00059F81C4808F0EEFB3B68B3F5005F03D036
:1007B0001948396808F0E6FB184808F0E3FB02F036
:1007C00049F83B681D481946002200F043F9012012
:1007D0000021002203F05AFA02F03CF801F0D8FFA1
:1007E0000837BD4680BD00BF00430200020018006C
:1007F00003001A0030010020F8010020B89B00001F
:1008000080841E00DC9B0000009C0000AC2B0020BC
:100810000C9C0000189C0000249C0000389C0000E8
:100820003C9C0000489C0000589C0000AC4B002001
:10083000809C00009C9C0000A89C00009C0B002059
:1008400080B582B000AF7860786800F045F9FA2092
:1008500000F0CCF900F068F9F9E700BF80B483B08C
:1008600000AF0346FB71084B97F907205209F9794D
:1008700001F01F01012000FA01F143F822100C37AA
:10088000BD465DF8047B704700E100E080B483B0B2
:1008900000AF0346FB71094B97F907205209F9791C
:1008A00001F01F01012000FA01F1603243F822102B
:1008B0000C37BD465DF8047B704700BF00E100E0E7
:1008C00080B483B000AF7860044B7A68C3F81C2111
:1008D0000C37BD465DF8047B704700BF00600040E8
:1008E00080B400AF034BD3F814311846BD465DF811
:1008F000047B70470060004080B582B000AF786034
:1009000039600CE07B6818787B6859687B681A7AD4
:100910007B68DB6807F0D2F87B6810337B603B684C
:100920005A1E3A60002BEDD10837BD4680BD00BF8E
:1009300080B582B000AFFFF7D3FF386000237B6043
:100940001CE001227B6802FA03F31A463B6813405D
:10095000002B10D001227B6802FA03F31846FFF740
:10096000AFFF094B7A6853F82230084A796852F889
:100970002120104698477B6802337B607B680F2BF1
:10098000DFDD0837BD4680BDE005002020060020E1
:1009900080B582B000AFFFF7A3FF386001237B6012
:1009A0001CE001227B6802FA03F31A463B681340FD
:1009B000002B10D001227B6802FA03F31846FFF7E0
:1009C0007FFF094B7A6853F82230084A796852F859
:1009D0002120104698477B6802337B607B680F2B91
:1009E000DFDD0837BD4680BDE00500202006002081
:1009F00080B500AF08480021402208F067FA0120C6
:100A0000FFF744FF0120FFF729FF0B20FFF73EFF10
:100A10000B20FFF723FF80BDE005002080B485B0E8
:100A200000AFB9607A603B600346FB73074BBA685E
:100A3000796843F82210064BBA68396843F82210E7
:100A40001437BD465DF8047B704700BFE005002009
:100A50002006002080B586B000AFF860B9607A60EB
:100A600000237B6129E07A687B69134416481946A4
:100A700008F088FA00233B6116E03A697B691A4462
:100A8000BB689A420AD23A697B691344FA681344F4
:100A90001B780E48194608F075FA02E00C4808F079
:100AA00071FA3B6901333B613B690F2BE5DD094876
:100AB00008F068FA7B6910337B617A69BB689A42F7
:100AC000D1D31837BD4680BDB89C0000C09C000043
:100AD000C89C0000CC9C000080B582B000AF78605C
:100AE000786808F0BAFA03461A460C4B1A600B4BAA
:100AF0001B68062B06DC786805F058FC074B0022C3
:100B00001A6007E0064B7A681A60064B00221A60EA
:100B100000F00AF80837BD4680BD00BF600600201F
:100B2000680600206406002080B500AF0D4B1B68EE
:100B3000002B00D115E00C4B1A680C4B1B681344BA
:100B4000184605F033FC094B1B685A1C074B1A600A
:100B5000064B1A68034B1B689A4202DB034B0022C8
:100B60001A6080BD60060020680600206406002030
:100B700080B400AF034B00221A60BD465DF8047BD1
:100B8000704700BF6006002080B483B000AF03460A
:100B9000FB71084B97F907205209F97901F01F0101
:100BA000012000FA01F143F822100C37BD465DF830
:100BB000047B704700E100E080B483B000AF0346DF
:100BC000FB71094B97F907205209F97901F01F01D0
:100BD000012000FA01F1203243F822100C37BD4603
:100BE0005DF8047B704700BF00E100E080B584B091
:100BF00002AF78602220FFF7DFFF094B1B6800225D
:100C00000092184600217A68002304F0BDFD0120FF
:100C100006F014FD2220FFF7B7FF0837BD4680BD60
:100C2000840B002080B582B000AF03463960FB71B1
:100C3000FB79002B1FD0FB79012B19D0FB79022BFC
:100C400013D0FB79032B0DD0FB79042B07D0FB7954
:100C5000052B02D141F6FF730FE000230DE04FF6A4
:100C6000FF730AE04FF6FF7307E04FF6FF7304E0EF
:100C70004FF6FF7301E04FF6FF733A68134103F03C
:100C80000103002B04D10B484FF42F7105F0FAFB40
:100C90000948FA793B68012101FA03F31946134622
:100CA000DB0013449B000344103359600837BD46F2
:100CB00080BD00BFD09C00000060004080B582B0C5
:100CC00000AF03463960FB71FB79002B1FD0FB7925
:100CD000012B19D0FB79022B13D0FB79032B0DD0FC
:100CE000FB79042B07D0FB79052B02D141F6FF736A
:100CF0000FE000230DE04FF6FF730AE04FF6FF739D
:100D000007E04FF6FF7304E04FF6FF7301E04FF684
:100D1000FF733A68134103F00103002B04D10B4821
:100D200040F2EB2105F0AEFB0948FA793B6801215E
:100D300001FA03F319461346DB0013449B000344F6
:100D4000103319600837BD4680BD00BFD09C00003D
:100D50000060004080B500AF02480221FFF7CCFDE3
:100D600080BD00BF209D000080B582B000AF7860DC
:100D700039603B68002B0FD0104A7B681B0113447D
:100D80001A780E497B681B010B4404331B6810461C
:100D90001946FFF793FF0EE0084A7B681B011344D6
:100DA0001A7806497B681B010B4404331B68104604
:100DB0001946FFF737FF0837BD4680BD209D00006C
:100DC00080B400AF054B054A126922F004021A6193
:100DD00030BFBD465DF8047B704700BF00ED00E00A
:100DE00080B582B000AF03463960FB71FB79002B00
:100DF0001FD0FB79012B19D0FB79022B13D0FB7983
:100E0000032B0DD0FB79042B07D0FB79052B02D1E6
:100E100041F6FF730FE000230DE04FF6FF730AE089
:100E20004FF6FF7307E04FF6FF7304E04FF6FF73D2
:100E300001E04FF6FF733A68134103F00103002B02
:100E400004D10B484FF42F7105F01CFB0948FA79C7
:100E50003B68012101FA03F319461346DB001344F2
:100E60009B000344103359600837BD4680BD00BF66
:100E7000409D00000060004080B582B000AF034696
:100E80003960FB71FB79002B1FD0FB79012B19D046
:100E9000FB79022B13D0FB79032B0DD0FB79042BAC
:100EA00007D0FB79052B02D141F6FF730FE0002339
:100EB0000DE04FF6FF730AE04FF6FF7307E04FF6C1
:100EC000FF7304E04FF6FF7301E04FF6FF733A68DB
:100ED000134103F00103002B04D10B4840F2EB2136
:100EE00005F0D0FA0948FA793B68012101FA03F3C9
:100EF00019461346DB0013449B000344103319606A
:100F00000837BD4680BD00BF409D00000060004026
:100F100080B500AF104B1B78002B01D030BF1AE01A
:100F200001F03EFE0346002B0AD003200521FFF707
:100F3000A3FFFFF745FF03200521FFF751FF0AE05C
:100F400003200621FFF798FF012006F077FB03201E
:100F50000621FFF745FF80BD6C06002080B500AF7D
:100F6000064B00221A70064B00221A60054B002225
:100F70001A6005480221FFF7BFFC80BD6C06002007
:100F80008C0B0020880B0020909D000080B582B063
:100F900000AF0C4B1B687B603B46184607F036FAE7
:100FA0007B681B0E0F2B0AD93B78032B07D1064B0E
:100FB000054A126822F0500242F010021A60083707
:100FC000BD4680BDFC81E00FC0800C4080B500AF05
:100FD000084B1B68184602F009FF03461A46064BE9
:100FE0001A70054B1B78062B02D10448FFF728FC2A
:100FF00080BD00BF940B0020D46B0020B09D00008A
:1010000080B487B000AFF860B9607A607B681B0E6F
:10101000DAB27B681B0CDBB25340DAB27B681B0A86
:10102000DBB25340DAB27B68DBB25340FB7400237F
:101030007B610CE07A69FB6813447A69D1B2FA7C6F
:101040000A44D1B2064AD1547B6901337B617B6982
:10105000B3F5005FEED31C37BD465DF8047B7047E7
:10106000AC2B002080B485B000AF78603960114BA4
:101070007A681A60104B3A681A600023FB6010E02F
:10108000FB685A1C13465B0013441B011A467B681D
:1010900092FBF3F1094BFA6843F82210FB68013325
:1010A000FB60FA687B689A42EADB1437BD465DF85C
:1010B000047B7047980B0020A42B0020B06B00200D
:1010C00080B485B000AF78600023FB6010E0114B66
:1010D000FA6853F822207B689A4206DD0E4B1A68A4
:1010E000FB689B0013441B680EE0FB680133FB6048
:1010F0000A4B1B685A1EFB689A42E8DC064B1A68CA
:10110000FB689B0013441B6818461437BD465DF806
:10111000047B7047B06B0020A42B0020980B0020AC
:1011200080B485B000AF78600B46FB707A681346D8
:101130005B0013440B4A1344FB60FB681B78FA788E
:101140009A4200D109E0FB78002B03D0FB68012212
:101150005A7002E0FB6801229A701437BD465DF8B0
:10116000047B7047D008002080B500AF4D4B0F22A4
:101170001A704D4B01221A704B4B1A78494B1B7851
:101180009A4235D0474B1B780E2B14D8454B1B7811
:10119000464A4C2101FB03F3134408331B68002B20
:1011A00009D0404B1B78414A4C2101FB03F3134407
:1011B00008331B6898473C4B1A783A4B1A703A4BE5
:1011C0001B783A4A4C2101FB03F3134404331B6898
:1011D000002B0AD0344B1B78344A4C2101FB03F31B
:1011E000134404331B6898475BE000F019F9C3E728
:1011F0002F4B5B78002B1BD02D4B00225A702A4BB3
:101200001B782A4A4C2101FB03F3134410331B685B
:10121000002B0AD0244B1B78244A4C2101FB03F3FA
:10122000134410331B6898473BE000F043F9A3E7F1
:101230001F4B1B79002B1BD01D4B00221A711A4B20
:101240001B781A4A4C2101FB03F3134418331B6823
:10125000002B0AD0144B1B78144A4C2101FB03F3DA
:10126000134418331B6898471BE000F049F983E7E3
:101270000D4B1B780D4A4C2101FB03F313440C3337
:101280001B68002B0AD0084B1B78084A4C2101FB35
:1012900003F313440C331B68984702E000F0D4F8C2
:1012A0006AE769E79C2B00209D2B0020FC9E000034
:1012B000D008002080B500AF04F0A4FE04F04CFF7D
:1012C000012004F045F800200121FFF74DFD3220F8
:1012D000FFF72CF900200021FFF746FD3220FFF731
:1012E00025F900200021002202F0D0FC002000217E
:1012F000002202F0CBFC01200021002202F026FC9B
:1013000000200021002202F05BFC022002490022A2
:10131000002302F079FC80BDD86B002080B500AFBF
:1013200001200021002202F0B1FC3220FFF7FEF87C
:1013300000200121FFF718FD3220FFF7F7F8002009
:101340000021FFF711FD002004F01AFF014B0F22CE
:101350001A7080BD9C2B002080B500AF2C4B1B78F1
:101360002C4A4C2101FB03F3134424331B68002B4C
:101370000AD0274B1B78274A4C2101FB03F3134467
:1013800024331B68984722E0214B1B781A46204BD8
:101390001B7820494C2000FB03F30B4428331968C9
:1013A0001D4B43F822101A4B1B785A011B4B1A4451
:1013B000174B1B784C2101FB03F303F12801154B5C
:1013C0000B44043310461946202207F076FD104BDB
:1013D0001B781A46104B53F82230002B12D00020F5
:1013E00003F0B6FF0A4B1B781A460B4B53F822202A
:1013F000074B1B785901094B0B4410461946FFF760
:1014000031FE04E004F0AAFF012003F0A1FF80BD3B
:101410009D2B0020FC9E0000B4060020F00600205A
:1014200080B500AF064B1B78064A4C2101FB03F345
:1014300013441B68184604F0B9FFFFF78DFF80BD09
:101440009D2B0020FC9E000080B582B000AF164BA3
:101450001B781A46154B53F82230002B1AD003F094
:10146000C7FE78607B68002B06DB0F4B1B781A46A3
:101470000F4B796843F822100B4B1B781A460C4B24
:1014800053F822301846FFF71BFE0346184604F0B7
:10149000D3FE01E0FFF748FB40F24510FFF7A6FB43
:1014A0000837BD4680BD00BF9D2B0020B40600203C
:1014B0007806002080B500AFFFF75AFB0E4B1B7873
:1014C0000E4A4C2101FB03F3134410331B79002B0C
:1014D0000BD0094B1B78094A4C2101FB03F3134441
:1014E00010331A79044B1A7005E0034B1B78013353
:1014F000DAB2014B1A7080BD9D2B0020FC9E0000CB
:1015000080B500AF1B4B1B781B4A4C2101FB03F33A
:10151000134420331B68002B00D129E001E0FFF7C2
:10152000F7FC164BDB78002BF9D1124B1B78124AD3
:101530004C2101FB03F313441C331B68002B09D01F
:101540000C4B1B780C4A4C2101FB03F313441C3356
:101550001B689847FFF7AEFE064B1B78064A4C21E6
:1015600001FB03F3134420331B689847FFF7D6FEB3
:1015700080BD00BF9D2B0020FC9E0000D0080020F5
:1015800080B500AF064B1B78064A582101FB03F3D8
:1015900013441B681846FFF79FFA04F0DFFE80BD76
:1015A000D46B0020F4A4000080B400AF034B0A22E7
:1015B0001A70BD465DF8047B704700BF9D2B00206C
:1015C00080B582B000AF304B1B78304A582101FB08
:1015D00003F3134410331B687B602D482D49072209
:1015E00007F06BFC2C4B1A687B689A4205D12B489C
:1015F0002B49042207F061FC3EE0274B1B68B3F542
:10160000006F1ED0B3F5006F05D8402B0DD0B3F599
:10161000807F10D02DE0B3F5004F1ED0B3F5803F92
:1016200021D0B3F5805F12D023E01C481D4903226E
:1016300007F043FC20E019481B49042207F03DFC59
:101640001AE016481949022207F037FC14E0134843
:101650001749022207F031FC0EE010481549032219
:1016600007F02BFC08E00D481349032207F025FC86
:1016700002E01248FFF7E4F8054804F097FEFFF790
:101680006BFE0837BD4680BDD46B0020F4A400007B
:10169000D8080020209E000070060020DB080020F3
:1016A000289E0000309E0000349E00003C9E0000FA
:1016B000409E0000449E0000489E00004C9E00009A
:1016C00080B588B002AF2C4B1B781A462B4B53F8D1
:1016D00022301846FFF7F4FC0346FB60FB689B02D0
:1016E000BB60BB687B61264B00221A60254B1B78D0
:1016F000254A582101FB03F3134410331B687B6018
:1017000000233B6125E0214B1968204B1A68204BD0
:101710001B780020009000200190386901F02EFF16
:10172000034683F00103DBB2002B02D01948FFF718
:1017300087F8164B1B683A6913443B613A697B682A
:101740009A4201D300233B617A69104B1B68D31A7C
:101750007B617B69002BD6DC0F4B104A1A60FA685C
:101760000F4B1A60044B1A780E4B1A70024B0E2264
:101770001A701837BD4680BD9D2B002078060020CA
:10178000D06B0020D46B0020F4A400007006002071
:101790006D060020609E0000A02B00206C9E0000C3
:1017A000A82B0020D56B002080B500AF00204FF49F
:1017B0000051024AFFF724FC80BD00BFEFBEADDE42
:1017C00080B58AB002AF3A4B1B781A46394B53F8B2
:1017D00022301846FFF774FC03463B613B699B02CD
:1017E000FB60FB68FB61344B00221A60334B1B78B3
:1017F000334A582101FB03F3134418331B68BB60C1
:101800002E4B1B782E4A582101FB03F3134410334F
:101810001B687B600023BB6100237B6132E0294BA6
:101820001B78002B04D07869B968BA69FFF7E8FB28
:1018300001200021002202F089F97A69224B1A4422
:10184000224B1B780021009100210191B869B968F1
:1018500002F06EF8BA69BB681344BB61BA697B6871
:101860009A4201D30023BB617A69BB6813447B6150
:101870007B69B3F5005F01D300237B61FA69BB6824
:10188000D31AFB61FB69002BC9DC0B4BBA691A60E8
:101890000F4B104A1A603A690F4B1A60044B1A78C2
:1018A0000E4B1A70024B0E221A702037BD4680BDB7
:1018B0009D2B002078060020D06B0020D46B0020E8
:1018C000F4A4000074060020AC2B00206D0600205C
:1018D000A02B0020749E0000A82B0020D56B0020B8
:1018E00080B58AB002AF4C4B1B781A464B4B53F86D
:1018F00022301846FFF7E4FB03463B613B699B023D
:10190000FB60FB68FB61464B1B78464A582101FB94
:1019100003F3134418331B68BB60414B1B78414AE7
:10192000582101FB03F3134410331B687B60002331
:10193000BB6100237B615CE03B4B1B78002B04D038
:101940007869B968BA69FFF75BFB7A69374B13446A
:1019500000220092B869B9681A46002301F0A6FC7B
:10196000BA69BB681344BB612F4B1B78002B2CD08A
:101970002F4B1B68BA699A4227D87A692D4B1A44B3
:1019800079692A4B0B4410461946BA6807F086FA63
:101990000346002B19D0284B284A1A60BB699B0AC2
:1019A0001A46274B1A60264B1A6842F20F739A4266
:1019B00003DD234B42F20F721A60174B1A78214B4A
:1019C0001A70154B0E221A7023E0BA697B689A428E
:1019D00001D30023BB617A69BB6813447B617B69D7
:1019E000B3F5005F01D300237B61FA69BB68D31AAA
:1019F000FB61FB69002B9FDC0F4B134A1A603A69AD
:101A00000F4B1A60044B1A780E4B1A70024B0E22C1
:101A10001A702037BD4680BD9D2B0020780600201F
:101A2000D46B0020F4A4000074060020AC4B00200E
:101A3000D06B0020AC2B0020A02B00207C9E00004F
:101A4000A82B0020D56B0020849E000080B500AF3D
:101A500000204FF40051024AFFF7D2FA80BD00BFC8
:101A6000EFBEADDE80B58AB002AF304B1B781A46B0
:101A70002F4B53F822301846FFF722FB03463B61F9
:101A80003B69FB60FB68FB612A4B1B782A4A5821A3
:101A900001FB03F3134418331B68BB60254B1B7811
:101AA000254A582101FB03F3134410331B687B6064
:101AB0000023BB6100237B6125E0BA697B691A447E
:101AC00079691E4B0B4400210091104614211A46DF
:101AD000002301F0F7FFBA69BB681344BB61BA6920
:101AE0007B689A4201D90023BB617B6914337B6117
:101AF0007B6903F11402BB689A4201D900237B6120
:101B0000FB69013BFB61FB69002BD6DC0C4B0D4AEA
:101B10001A603A690C4B1A60044B1A780B4B1A7016
:101B2000024B0E221A702037BD4680BD9D2B00202F
:101B300078060020D46B0020F4A40000AC2B002019
:101B4000A02B00208C9E0000A82B0020D56B00202D
:101B500080B58AB002AF414B1B781A46404B53F810
:101B600022301846FFF7ACFA0346FB60FB68BB6007
:101B7000BB68FB613B4B1B783B4A582101FB03F3DD
:101B8000134420331B687B60364B1B78364A582140
:101B900001FB03F3134410331B683B600023BB615C
:101BA00000237B6147E000230093B86979682F4ADE
:101BB000002301F07BFB00233B610BE03A697B696A
:101BC00013442A4AD25C0132D1B2284AD1543B692B
:101BD00001333B613B69132BF0DD254B1B78002261
:101BE000009200220192B86979687A6801F0C6FC17
:101BF0001F4B1B780022009200220192B86979687D
:101C00001A4A01F095FEBA697B681344BB61BA6950
:101C10003B689A4201D90023BB617B6914337B6125
:101C20007B6903F114027B689A4201D900237B612E
:101C3000FB69013BFB61FB69002BB4DC0D4B0E4AD9
:101C40001A60FA680D4B1A60044B1A780C4B1A7024
:101C5000024B0E221A702037BD4680BD9D2B0020FE
:101C600078060020D46B0020F4A40000AC4B0020C8
:101C70006D060020A02B00208C9E0000A82B0020C9
:101C8000D56B002080B500AF02F018F80346002B9A
:101C900002D0FFF7E7FE01E0FFF75AFF80BD00BF6B
:101CA00080B586B002AF7860134B1B78134A582179
:101CB00001FB03F3134410331B68FB607A68FB6875
:101CC0009A4201D9FB687B600D4B1B780022009281
:101CD0000022019200207968002201F04FFC0346A7
:101CE00083F00103DBB2002B02D00648FEF7A8FD0B
:101CF0001037BD4680BD00BFD46B0020F4A40000A7
:101D00006D060020609E000080B58AB002AF78604A
:101D10002C4B1B782C4A582101FB03F31344183336
:101D20001B683B61274B1B78274A582101FB03F3B3
:101D3000134410331B68FB600023FB610023BB616D
:101D40007B687B6138E0FB69002B05D17A68FB6911
:101D5000D31A1846FFF7A4FFB8693969FA69FFF783
:101D60004FF9BA69194B1A44194B1B78002100919D
:101D700000210191F869396901F0DAFD154B1A6803
:101D80003B691A44134B1A60FA693B691344FB61BF
:101D9000FA69FB689A4201D30023FB61BA693B6987
:101DA0001344BB61BB69B3F5005F01D30023BB6182
:101DB0007A693B69D31A7B617B69002BC3D12037D9
:101DC000BD4680BDD46B0020F4A40000AC2B0020E5
:101DD0006D060020D06B002080B58AB002AF78601D
:101DE0002D4B1B782D4A582101FB03F31344183364
:101DF0001B683B61284B1B78284A582101FB03F3E1
:101E0000134410331B68FB600023FB610023BB619C
:101E10007B687B6137E0B8693969FA69FFF7F0F8E8
:101E2000BA691F4B134400220092F86939691A46B7
:101E3000002301F03BFABA691A4B1A44B969184BEE
:101E40000B44104619463A6907F028F80346002B60
:101E500001D000231BE0FA693B691344FB61FA6976
:101E6000FB689A4201D30023FB61BA693B691344C2
:101E7000BB61BB69B3F5005F01D30023BB617A6925
:101E80003B69D31A7B617B69002BC4D101231846BF
:101E90002037BD4680BD00BFD46B0020F4A40000F5
:101EA000AC4B0020AC2B002080B586B000AF394B86
:101EB0001B781A46384B53F822301846FFF700F9C2
:101EC00003467B607B689B027B61344B1B78344A02
:101ED000582101FB03F3134410331B683B607A69FC
:101EE0003B689A4202D93B68FB6001E07B69FB607A
:101EF00000233B6133E02B4B00221A60F868FFF7A8
:101F000003FFF868FFF768FF0346FB72FB7A83F074
:101F10000103DBB2002B1AD0204B1B78204A58213A
:101F200001FB03F3134418331B683A69B2FBF3F364
:101F30001A461D4B1A601C4B1A6842F20F739A42E4
:101F400004DD194B42F20F721A600BE00AE07A6965
:101F5000FB68D31A7B613A69FB6813443B617B6978
:101F6000002BC8D1FB7A002B06D0104B104A1A6008
:101F70007A680D4B1A6002E00C4B0E4A1A60054B52
:101F80001A780D4B1A70034B0E221A701837BD4683
:101F900080BD00BF9D2B002078060020D46B002060
:101FA000F4A40000D06B0020A82B0020A02B002060
:101FB000949E00009C9E0000D56B002080B582B0EE
:101FC00000AF2B4B1B781A462A4B53F82230184689
:101FD000FFF776F803467B607B68002B1CD101205D
:101FE0000021002201F03AFE012000F0C3FA00BFF8
:101FF00000F0FEFA034683F00103DBB2002BF7D1B9
:10200000012005F069FB1C4B1C4A1A6000200021CE
:10201000002201F023FE1BE001200021002201F03C
:1020200035FE012000F0A6FA00BF00F0E1FA0346F9
:1020300083F00103DBB2002BF7D1012005F04CFB4C
:102040000D4B0F4A1A6000200021002201F01EFEF5
:102050000C4B00221A717A680B4B1A60044B1A78E9
:102060000A4B1A70024B0E221A700837BD4680BD0B
:102070009D2B002078060020A02B0020A49E0000AD
:10208000AC9E0000D0080020A82B0020D56B0020BB
:1020900080B500AFFEF7C4FA80BD00BF80B582B046
:1020A00000AF074B1B78002B02D0064B7B6001E092
:1020B000054B7B60786804F079F90837BD4680BD30
:1020C0006D060020B49E0000BC9E000080B500AFED
:1020D0000B4B1B780B4A582101FB03F3134450337D
:1020E0001B7983F00103DBB2002B06D0064B1B7873
:1020F0000133DAB2044B1A7001E0FFF7CFFF80BD65
:10210000D46B0020F4A400009D2B002080B500AF0C
:10211000084B1B78002B0CBF00230123DBB283F09C
:102120000103DBB203F00103DAB2024B1A70FFF7CE
:10213000B5FF80BD6D06002080B483B000AF404B7A
:102140001B78002B00D076E03E4B1B781A463E4BA6
:10215000002143F8221000237B6028E0394B1B78D4
:1021600018463A4B1B781A46394913469B001344CC
:102170005B0013447A681344043351F833309B0AEC
:102180001946344BC0007A68024443F822102D4BA4
:102190001B781A462B4B1B7819462B4B53F82130D2
:1021A000591C294B43F822107B6801337B60274B75
:1021B0001B78274A582101FB03F313441C331A6888
:1021C0007B689A42CADC00237B602BE01D4B1B78A6
:1021D0001A46204BD1007A680A4453F822303B60FB
:1021E0001D4B1B68B3F5806F02D23B68002B0AD0F1
:1021F000194B1B68B3F5806F11D33A68164B1B68F7
:102200009B0A9A420BD10F4B1B781A46134B7968E5
:1022100053F82130591E124B43F822100BE07B6813
:1022200001337B60074B1B781A46074B53F822207B
:102230007B689A42CADC0C37BD465DF8047B704768
:102240006E0600209D2B0020B4060020D46B0020D9
:10225000F4A40000F006002070060020B06B0020FF
:102260007806002080B582B000AF0D4BDB6A1846BF
:10227000FEF726FF78607B68002B05D07B689B0209
:102280001A46084B1A6005E0002001F0FDFD0246E9
:10229000044B1A6004F062F80837BD4680BD00BFE9
:1022A000780600207006002080B582B000AF074B92
:1022B0001B78002B02D0064B7B6001E0054B7B6056
:1022C000786804F073F80837BD4680BD74060020B6
:1022D000C49E0000CC9E000080B500AFFFF7E4FF75
:1022E00080BD00BF80B500AF084B1B78002B0CBF32
:1022F00000230123DBB283F00103DBB203F001030F
:10230000DAB2024B1A70FFF7CFFF80BD74060020CF
:1023100080B582B000AF1D4B5B6B1846FEF7D0FE58
:1023200003461B4A02FB03F31A461A4B1A6004F0D9
:1023300015F8184B1A68184B9A4202D10523FB7105
:1023400001E00423FB71154B1B78FA799A4200D106
:1023500019E0124BFA791A70104B1B7811201946AC
:1023600004F0A0FE0D4B1B78052B05D104200021A5
:10237000002205F02DF804E005200021002205F0E0
:1023800027F8FEF723FE0837BD4680BD78060020FB
:1023900040420F00940B002080841E00900B002010
:1023A00080B500AF054B1B68184603F0FFFF044BD8
:1023B0001B68184603F040FF80BD00BFA02B002023
:1023C000A82B002080B500AFFEF7D2FB024B1A7895
:1023D000024B1A7080BD00BFD56B00209D2B0020E2
:1023E00080B582B000AFFEF7D1FD454B05221A70D3
:1023F000444B454A1A60424B1B781120194604F0A1
:1024000051FE4248012104F011FC4148012104F031
:102410000DFC4048012104F009FC3F48022104F072
:1024200041FE3E48022104F03DFE3D48012104F0FA
:10243000FDFB3B48012104F07FFA3A48012104F0FA
:10244000F5FB3948012104F0F1FB03F04DF9374861
:1024500003F006F9FEF74AF8FEF7CAFAFEF77AFC2F
:102460003348FEF713F8FEF779FD002003F088FEED
:1024700000237B6007E02F4B7A68002143F822108D
:102480007B6801337B607B680E2BF4DD012002F05A
:102490005FFFFEF79BFD284B00221A70274B00229E
:1024A0001A704FF4807001F0EFFC0246244B1A6062
:1024B000244B00221A7001F00FFC0346B3F5847F11
:1024C0000CD14FF4807001F02DFC034683F0010322
:1024D000DBB2002B02D01C48FEF7B2F9012000212C
:1024E000002201F0D3FB194803F060FFFA20FEF749
:1024F0007DFB174B00221A60FEF736FEFCE700BF9B
:10250000900B0020940B002080841E00408104006A
:1025100000D20400004302000200180003001A0069
:10252000700628000092040000A20400840B002022
:1025300021110000780600206D0600206E060020A4
:102540007006002074060020D49E0000F49E000057
:10255000D06B002080B483B000AF78603960044B4A
:1025600001221A700C37BD465DF8047B704700BF2E
:10257000E408002080B586B002AF786079684FF437
:102580007A7000FB01F108464FF00001CB0343EAEB
:102590005043C20312F57A5243F100031046194624
:1025A0004FF4FA424FF0000306F06EF802460B4675
:1025B0001346FB600A4B00221A700A4B1B6800226C
:1025C000009218460021FA68074B03F0DDF8034635
:1025D000002B02D00548FEF733F91037BD4680BD09
:1025E000E4080020E00800205525000090A300002A
:1025F00080B400AF034B1B78DBB21846BD465DF8D4
:10260000047B7047E408002080B483B000AF034629
:10261000FB71084B97F907205209F97901F01F0166
:10262000012000FA01F143F822100C37BD465DF895
:10263000047B704700E100E080B483B000AF034644
:10264000FB71094B97F907205209F97901F01F0135
:10265000012000FA01F1603243F822100C37BD4628
:102660005DF8047B704700BF00E100E080B483B0F8
:1026700000AF786039607B683A685A630C37BD46B2
:102680005DF8047B704700BF80B483B000AF786012
:1026900039607B689A6B3B681A437B689A630C3796
:1026A000BD465DF8047B704780B582B000AF104B2B
:1026B000DB6A03F00403002B17D00D4BDB69FB71C1
:1026C0000C4B1A68FB7910461946FDF7E7FD094BDC
:1026D0001B681846FDF7BCFD0346002B05D0044BD4
:1026E000034A926B22F004029A630837BD4680BD0C
:1026F00000400840EC08002080B582B000AF0E4BCF
:10270000DB6A03F00203002B13D00C4B1A68FB1D8D
:1027100010461946FDF7F0FD0346002B03D0064B8B
:10272000FA799A6205E0044B034A926B22F00202A6
:102730009A630837BD4680BD00400840E808002085
:1027400080B500AFFFF7B0FFFFF7D6FF80BD00BF39
:1027500080B582B000AF0346FB7100BF0A4B1A6818
:10276000FB7910461946FDF7F3FD034683F001039C
:10277000DBB2002BF2D1054B044A926B42F002020D
:102780009A630837BD4680BDE80800200040084035
:1027900080B500AF014802F05BF980BD0040084001
:1027A00080B584B000AFF860B9607A603B60B8680B
:1027B0007968FDF72DFD02461E4B1A603868B9692D
:1027C000FDF726FD02461C4B1A601C48012104F04F
:1027D0002DFA1B48012104F029FA1A48012104F0BE
:1027E00025FA19480221FEF787F8184802F030F957
:1027F0001648174902F0E4F8144B03225A65FB68A7
:10280000002B05D0FB68114800211A4602F066F83B
:102810000E480621FFF72AFF0C480421FFF734FF7A
:102820001820FFF709FF1820FFF7EEFE1037BD460E
:1028300080BD00BFEC080020E808002000D20400A2
:102840000043020080071400B0A3000000400840CD
:102850002000002080B500AF00BF064B1B68184663
:10286000FDF70AFD034683F00103DBB2002BF4D130
:1028700080BD00BFE808002080B582B000AF0346ED
:10288000FB71FB791846FFF763FF002318460837F2
:10289000BD4680BD80B400AF00231846BD465DF83C
:1028A000047B704780B483B000AF0346FB71084BD4
:1028B00097F907205209F97901F01F01012000FA68
:1028C00001F143F822100C37BD465DF8047B7047D8
:1028D00000E100E080B483B000AF0346FB71094B18
:1028E00097F907205209F97901F01F01012000FA38
:1028F00001F1603243F822100C37BD465DF8047BCD
:10290000704700BF00E100E080B485B000AF7860A0
:1029100039607B6803F10473DA003B6813449B0061
:10292000FB60FB681B6818461437BD465DF8047BE6
:10293000704700BF80B400AF054B054A126922F012
:1029400004021A6130BFBD465DF8047B704700BFCA
:1029500000ED00E080B400AF72B6084B1B68B3F125
:10296000FF3F04D0054B1B685A1C044B1A60034BF5
:102970001B681846BD465DF8047B7047780B002045
:1029800080B483B000AF0C4B1B68002B0DD00A4BFA
:102990001B685A1E084B1A60074B1B687B607B68DC
:1029A000002B00D162B67B6800E0002318460C378C
:1029B000BD465DF8047B7047780B002080B483B07F
:1029C00000AF786039607B683A689A640C37BD461E
:1029D0005DF8047B704700BF80B582B000AF03464E
:1029E0003960FB71FB79002B1FD0FB79012B19D0CB
:1029F000FB79022B13D0FB79032B0DD0FB79042B31
:102A000007D0FB79052B02D141F6FF730FE00023BD
:102A10000DE04FF6FF730AE04FF6FF7307E04FF645
:102A2000FF7304E04FF6FF7301E04FF6FF733A685F
:102A3000134103F00103002B04D10C4840F2A621FE
:102A400003F020FDFA791346DB0013449B001C338E
:102A500003F1804303F5C04318463968FFF754FF7C
:102A6000034618460837BD4680BD00BFD0A300000E
:102A700080B582B000AF03463960FB71FB79002B53
:102A80001FD0FB79012B19D0FB79022B13D0FB79D6
:102A9000032B0DD0FB79042B07D0FB79052B02D13A
:102AA00041F6FF730FE000230DE04FF6FF730AE0DD
:102AB0004FF6FF7307E04FF6FF7304E04FF6FF7326
:102AC00001E04FF6FF733A68134103F00103002B56
:102AD00004D10B484FF42F7103F0D4FC0948FA7964
:102AE0003B68012101FA03F319461346DB00134446
:102AF0009B000344103359600837BD4680BD00BFBA
:102B0000D0A300000060004080B582B000AF034653
:102B10003960FB71FB79002B1FD0FB79012B19D099
:102B2000FB79022B13D0FB79032B0DD0FB79042BFF
:102B300007D0FB79052B02D141F6FF730FE000238C
:102B40000DE04FF6FF730AE04FF6FF7307E04FF614
:102B5000FF7304E04FF6FF7301E04FF6FF733A682E
:102B6000134103F00103002B04D10B4840F2EB2189
:102B700003F088FC0948FA793B68012101FA03F364
:102B800019461346DB0013449B00034410331960BD
:102B90000837BD4680BD00BFD0A3000000600040E4
:102BA00080B400AF034B1B781846BD465DF8047B2C
:102BB000704700BFF008002080B584B000AF304BF4
:102BC0001B6C03F00403002B57D02E4B1B68002B0B
:102BD00008D02B4BDB69FB732A4B1B685A1E294B11
:102BE0001A601EE0284B1B68002B0ED0274B1B6879
:102BF000591C264A1160224AD269D2B21A70224B5D
:102C00001B685A1E204B1A600BE0214B1B68002BDF
:102C100007D01B4BDB69FB731D4B1B685A1E1C4BFB
:102C20001A60184B1B68002B27D1174B1B68002B11
:102C300023D1174B1B68002B1FD1164B1B68BB60A1
:102C4000154B1B687B600E4B0D4AD26C22F00402C0
:102C5000DA64124B1B7883F00103DBB2002B03D044
:102C600003200321FFF750FF0D4B00221A70BB68B1
:102C7000002B02D0BB68786898471037BD4680BDEE
:102C800000C4004010090020140900201809002089
:102C90001C090020F4080020F8080020200900206A
:102CA000F008002080B400AF254B1B6C03F002033A
:102CB000002B41D0234B1B68002B0DD0204A224B08
:102CC0001B68581C204908601B7853631D4B1B6808
:102CD0005A1E1C4B1A601DE01C4B1B68002B0DD0AC
:102CE000174A1B4B1B68581C194908601B78536313
:102CF000164B1B685A1E154B1A600BE0154B1B68D0
:102D0000002B07D00E4B00225A63124B1B685A1E31
:102D1000104B1A600B4B1B68002B0DD10B4B1B6823
:102D2000002B09D10B4B1B68002B05D1044B044A27
:102D3000D26C22F00202DA64BD465DF8047B704773
:102D400000C40040FC080020000900200409002005
:102D5000080900200C09002080B584B000AFF8609D
:102D6000B9607A603B60304BFA691A602F4B3A6A5F
:102D70001A602F4BFA681A602E4BBA681A602E4BF5
:102D80007A681A602D4B3A681A602D4B00221A603F
:102D90002C4B00221A602C4B00221A602B4B97F808
:102DA00024201A703B7E002B09D0FA687B681A44F5
:102DB000244B1A601C4B1A68214B1A6014E0FA6805
:102DC0007B681A44FB699A4207D2FA687B6813440D
:102DD000FA69D21A1A4B1A6006E0FA687B681A443C
:102DE000FB69D21A184B1A60194BBA6A1A60194B50
:102DF000FA6A1A60184B01221A7003200321FFF7A8
:102E000037FE164B154AD26C42F00602DA64BB6AF2
:102E1000002B06D101E0FFF78DFD0F4B1B78002B37
:102E2000F9D11037BD4680BD1409002018090020D3
:102E3000FC080020000900200409002008090020E7
:102E40000C090020100900201C0900202009002086
:102E5000F4080020F8080020F008002000C400401A
:102E600080B588B002AF786003200121FFF7B4FD80
:102E700003467B617B69002B09D01A4B0222C3F801
:102E80001C21194B1B685A1C174B1A6027E00023A2
:102E90000093032001210022002304F087FD134B3F
:102EA0001B685A1C114B1A60114B1B7883F00103ED
:102EB000DBB2002B00D0FEE703200321FFF724FE46
:102EC0000C4B1B683B610C4B1B68FB60084B0022E2
:102ED0001A703B69002B02D03B69F8689847183795
:102EE000BD4680BD00600040E46B0020E86B002020
:102EF00021090020240900202809002080B586B07F
:102F000002AF0346B9607A60FB73204BBA681A605F
:102F10001F4B7A681A601F4B01221A70FFF71AFDC7
:102F200003200121FFF758FD02461B4B1A60FA7B74
:102F3000194B1B689A4208D1184B1B685A1C174B37
:102F40001A600020FFF78CFF11E0FB7B002B0CBF09
:102F500000230123DAB2FB7B002B14BF00230123E3
:102F6000DBB2012100910320012104F01FFDFFF7D6
:102F700007FDBB68002B06D101E0FDF7C9FF054B3B
:102F80001B78002BF9D11037BD4680BD24090020E5
:102F90002809002021090020E06B0020DC6B0020C4
:102FA00080B582B000AF78602548012103F03EFE75
:102FB0002448012103F03AFE23480421FDF79CFC3C
:102FC000224801F053FE2148214901F0E3FD1F4B47
:102FD0001E4A126842F480521A601C4B40F20B12D7
:102FE0005A657B68002B05D07B68184800211A467B
:102FF00001F080FD15480621FFF7E0FC1020FFF7E7
:1030000069FC1020FFF74EFC0F20FFF763FC0F2038
:10301000FFF748FC0F4B00221A700F4B00221A607A
:103020000E4B00221A600E4B00221A600320012171
:103030000C4A0023FDF7F2FC0837BD4680BD00BFF7
:1030400000D204000012040020A4000000C40040CC
:103050003000002021090020E86B0020E46B0020F4
:10306000DC6B0020612E000080B483B000AF78607C
:1030700039603B685A1E7B681340002B14BF002345
:103080000123DBB218460C37BD465DF8047B704760
:1030900080B584B000AF78600A4B1B68FB600A4BB8
:1030A0001B68BB60074B00221A60084B00221A7095
:1030B000FB68002B02D0FB68B86898471037BD4604
:1030C00080BD00BF340900203809002031090020EC
:1030D00080B58AB006AFB9607A603B600346FB7387
:1030E000154BFA7B1A70154B3A681A60144BBA6983
:1030F0001A60144B01221A7001230093BB680193DC
:103100007B680293002303930F4B049300230593E2
:103110000120094900220023FFF71EFE3B68002B17
:1031200006D101E0FDF7F4FE064B1B78002BF9D128
:103130001037BD4680BD00BF3C0900203409002087
:1031400038090020310900209130000080B58AB094
:1031500006AFF860B9607A603B60144BFA691A6098
:10316000134B3A6A1A60134B01221A700123009321
:103170007B6801933B6802933B7E03930E4B049361
:1031800000230593F868B96800220023FFF7E4FDE7
:10319000FB69002B06D101E0FDF7BAFE054B1B7859
:1031A000002BF9D11037BD4680BD00BF3409002087
:1031B00038090020310900209130000080B58CB022
:1031C00006AFB9607A603B600346FB7300237B6106
:1031D0007B695A1C7A612F4AF97BD1542E4B1B68AC
:1031E0005B69022B07DD7B695A1C7A61BA68120C95
:1031F000D1B2284AD154284B1B685B69012B07DDEB
:103200007B695A1C7A61BA68120AD1B2214AD15438
:10321000214B1B685B69002B06DD7B695A1C7A61B8
:10322000BA68D1B21B4AD1547A691A4B1344184672
:1032300000217A6805F04AFE7A697B6813447B6155
:10324000164BFA6A1A60164B3A6B1A60154B01223C
:103250001A707B69012200927A6A0192BA6A02921C
:1032600000220392104A049200220592184609494E
:103270003A683B6AFFF770FDFB6A002B06D101E05C
:10328000FDF746FE074B1B78002BF9D11837BD46DA
:1032900080BD00BF3C0900202C090020340900201B
:1032A00038090020310900209130000080B58CB031
:1032B00006AFF860B9607A603B60124B1B6893F808
:1032C0005330002B04D00323FB7500233B6103E044
:1032D0000B23FB7501233B613B69FA7D00210091C3
:1032E000B96801917968029139680391396A04914A
:1032F0001046F9681A460023FFF760FF1837BD46ED
:1033000080BD00BF2C09002080B584B002AF78607A
:103310000F4B1B68002B06D10E4B00221A707868E9
:10332000FFF7B6FE11E00C4B1B6893F85530002BED
:1033300003D0002000F014F807E0002300930620DB
:1033400000210022054BFFF7C3FE0837BD4680BDB4
:103350004C0A0020540A00202C0900206133000090
:1033600080B58AB006AF7860394B1B68002B04D05B
:10337000374B1A68374B1A602EE0374B1B68DB69F6
:10338000013BFB601EE0344B1A68FB680433DB0032
:103390001A44304B1A602F4B1B681A682F4B1B685E
:1033A0009A420CD82E4B1A682A4B1B681B68104691
:1033B0001946FFF759FE0346002B00D005E0FB68D5
:1033C000013BFB60FB68002BDDDAFB68002B03DAB6
:1033D000204B00221A60FEE71E4B1B685B79002B16
:1033E00015D01C4B1B681A791D4B1B6800210091DE
:1033F00000210191002102911A49039100210491B9
:103400001046194600220023FFF7D8FE1DE0124B9C
:103410001B6893F85530002B0CD000230093114B00
:1034200001930023029304200F4900220023FFF799
:103430008DFE0AE0074B1B681B790022009218469C
:1034400000210022074BFFF743FE1037BD4680BD29
:10345000400A0020440A00202C0900204C0A0020C9
:10346000480A00206D340000A4A4000080B586B096
:1034700004AF7860194B1B681A68194B1B681A4413
:10348000174B1A60174B1A68144B1B681B68D21A2B
:10349000144B1A60144B1B78002B12D0134B2522AF
:1034A0001A70124B00225A7001230093104B0193A3
:1034B0000023029301200D4900220023FFF746FE5E
:1034C00008E00C4B1B6893F852200B4B1A7000203D
:1034D00000F028F80837BD4680BD00BF440A002030
:1034E000480A00204C0A0020300900203C09002036
:1034F000FD3400002C090020500A002080B582B065
:1035000000AF7860054B1B6893F8563018460449A5
:103510000022FFF7F3FC0837BD4680BD2C090020D0
:103520000933000080B584B002AF7860104B1A7880
:10353000104B1B6893F851301340DAB20D4B1B68E7
:1035400093F852309A420CD10A4B1B6893F85030D2
:103550000022009218460121054A074BFFF7B8FDEB
:1035600002E00020FFF7D0FE0837BD4680BD00BF57
:10357000500A00202C0900202535000080B58AB0B3
:1035800004AFF860B9607A60FB700023FB74FB78CD
:10359000002B07D05A4B1B6893F85430002B01D0F6
:1035A000012300E0002303F00103DAB2554B1A7047
:1035B0007B68002B33D0BB687A68B3FBF2F2796882
:1035C00001FB02F29B1A002B01D0002394E04C4B2C
:1035D0001B68DB69013B7B6113E0494B1A687B691F
:1035E0000433DB001A44484B1A60474B1B681A68C7
:1035F0007B689A4202D10123FB7405E07B69013BA1
:103600007B617B69002BE8DAFB7C83F00103DBB292
:10361000002B40D03C4B00221A6000236CE0384B5A
:103620001B68DB69013B7B6127E0354B1A687B69CE
:103630000433DB001A44354B1A60344B1B681A689C
:10364000BB68B3FBF2F102FB01F29B1A002B00D026
:1036500010E02E4B1B681B68F8681946FFF704FD45
:10366000034683F00103DBB2002B00D002E001230C
:10367000FB7405E07B69013B7B617B69002BD4DA3D
:10368000224B00221A60FB7C83F00103DBB2002B8B
:1036900001D0002330E01E4BFA681A601D4BBA6857
:1036A0001A601D4B3A6A1A601C4B7A6A1A601C4BEE
:1036B00001221A70124B1B6893F85530002B0CD066
:1036C00000230093174B0193002302930420164913
:1036D00000220023FFF73AFD02E00020FFF714FE6E
:1036E0003B6A002B07D101E0FDF712FC0C4B1B7865
:1036F000DBB2002BF8D1012318461837BD4680BD38
:103700002C09002030090020400A0020440A002033
:10371000480A00204C0A0020340900203809002003
:10372000540A002009330000A8A4000080B584B02A
:1037300002AF78600F4B1B68002B06D10E4B0022A6
:103740001A707868FFF7A4FC11E00C4B1B6893F823
:103750005530002B03D0002000F014F807E00023C0
:103760000093062000210022054BFFF7B1FC08372B
:10377000BD4680BD600A00206C0A00202C09002094
:103780008537000080B588B006AF78601B4B1A689B
:103790001B4B1A601B4B1A68194B1B6813445A1EAB
:1037A000184B1B685A40184B1B689B695B421340BF
:1037B000002B0CD0144B1B689A69134B1B689B6938
:1037C000591E104B1B680B40D21A0D4B1A600D4B43
:1037D0001A680B4B1B680D49096800910021019183
:1037E000002102910A49039100210491022011460F
:1037F0000022FFF7E3FC0837BD4680BD600A0020C9
:10380000640A00205C0A00202C090020580A0020CD
:103810001538000080B586B004AF78601B4B1A687D
:103820001B4B1B681A44194B1A601A4B1A68184B29
:103830001B681A44174B1A60174B1A68144B1B6805
:10384000D21A154B1A60154B1B78002B12D0144B53
:1038500025221A70124B00225A7001230093114B3B
:1038600001930023029302200D4900220023FFF759
:103870006DFC08E00C4B1B6893F852200B4B1A7040
:10388000002000F029F80837BD4680BD580A002006
:10389000640A00205C0A0020600A00203009002031
:1038A0003C090020B13800002C090020680A0020E3
:1038B00080B582B000AF7860054B1B6893F8563036
:1038C000184604490022FFF719FB0837BD4680BDA2
:1038D0002C0900202D37000080B584B002AF78603D
:1038E000104B1A78104B1B6893F851301340DAB222
:1038F0000D4B1B6893F852309A420CD10A4B1B684F
:1039000093F850300022009218460121054A074BD7
:10391000FFF7DEFB02E00020FFF708FF0837BD4697
:1039200080BD00BF680A00202C090020D9380000A3
:1039300080B588B004AFF860B9607A60FB70FB783E
:10394000002B07D0214B1B6893F85430002B01D07B
:10395000012300E0002303F00103DAB21C4B1A70CC
:103960001C4B7A681A601C4BFA681A601B4BBA68C9
:103970001A601B4BBA691A601A4BFA691A601A4B23
:1039800001221A70114B1B6893F85530002B0CD094
:1039900000230093154B0193002302930420144944
:1039A00000220023FFF7D2FB02E00020FFF7BEFE5B
:1039B000BB69002B07D101E0FDF7AAFA0A4B1B787F
:1039C000DBB2002BF8D11037BD4680BD2C0900209A
:1039D00030090020580A00205C0A0020600A0020FC
:1039E00034090020380900206C0A00202D3700001F
:1039F000A8A4000080B588B006AF78600B4B1A68A9
:103A00000B4B1B680B4909680091002101910021B3
:103A10000291094903910021049158201146002286
:103A2000FFF7CCFB0837BD4680BD00BF5C0A002015
:103A3000640A0020580A00203D3A000080B582B098
:103A400000AF7860054B1B6893F85220044B1A7046
:103A5000002000F007F80837BD4680BD2C09002083
:103A6000680A002080B584B002AF7860114B1A78E4
:103A7000114B1B6893F851301340DAB20E4B1B68A0
:103A800093F852309A420CD10B4B1B6893F850308C
:103A90000022009218460121064A084BFFF718FB46
:103AA00005E0074B00221A707868FFF7F1FA083733
:103AB000BD4680BD680A00202C090020653A000040
:103AC0006C0A002080B588B004AFF860B9607A60F5
:103AD0003B60164B7A681A60154BFA681A60154BF2
:103AE000BA681A60144B3A681A60144BBA691A60C3
:103AF000134B01221A7000230093124B01930023F1
:103B000002930420104900220023FFF71FFB3B68AB
:103B1000002B07D101E0FDF7FBF9094B1B78DBB265
:103B2000002BF8D11037BD4680BD00BF580A0020D9
:103B30005C0A0020600A00203409002038090020B7
:103B40006C0A0020F5390000A8A4000080B586B0FA
:103B500002AF0346B9607A60FB73FB7B002B01D098
:103B6000062300E004237A68009218460021002210
:103B7000BB68FFF7ADFA1037BD4680BD80B58AB08F
:103B800006AFB9607A603B600346FB73FB7B002B9A
:103B900001D0362300E03923002200920022019256
:103BA000002202927A6803923A6804921846B96831
:103BB00000220023FFF702FB1037BD4680BD00BF87
:103BC00080B588B004AF0346B9607A60FB730D4BD3
:103BD00001221A70FB7B002B01D03C2300E0002364
:103BE000084A537000230093BB6801937B680293DB
:103BF0000220044900220023FFF7A8FA1037BD462F
:103C000080BD00BF3C09002080B586B002AFF860DF
:103C1000B9607A603B60074B1B6893F850303A6894
:103C200000921846F968BA687B68FFF751FA1037B6
:103C3000BD4680BD2C09002080B586B002AFF8607B
:103C4000B9607A603B603B6800939F20F968BA686E
:103C50007B68FFF73DFA1037BD4680BD80B586B062
:103C600002AF0346B9607A60FB73FB7B002B01D087
:103C7000B92300E0AB237A680092184600210022A5
:103C8000BB68FFF725FA1037BD4680BD80B586B00A
:103C900002AF0346B9607A60FB73FB7B002B01D057
:103CA000792300E0AB237A680092184600210022B5
:103CB000BB68FFF70DFA1037BD4680BD80B400AF7A
:103CC000044B1B6893F855301846BD465DF8047BDD
:103CD000704700BF2C09002080B582B000AF104BA8
:103CE0001B6893F8553083F00103DBB2002B01D041
:103CF000002310E03B1D0220194600220023FFF79D
:103D000083FF3B7903F00103002B02D04FF4807353
:103D100001E04FF4847318460837BD4680BD00BFEC
:103D20002C09002080B58AB004AF78602C4B1B684A
:103D300093F8553083F00103DBB2002B01D0002350
:103D400049E07B68B3F5807F04D1264B7B61042377
:103D50003B610AE07B68B3F5847F04D1224B7B6131
:103D600004233B6101E0002335E03B69002200921F
:103D70000022019200220292184679690022002353
:103D8000FFF7E4F907F10C03022019460022002393
:103D9000FFF73AFF3A7B124B1B6893F85130134000
:103DA000DAB20F4B1B6893F852309A42EAD03B7B51
:103DB00003F00103002B07D07B68B3F5807F14BFAD
:103DC00000230123DBB206E07B68B3F5847F14BFD8
:103DD00000230123DBB218461837BD4680BD00BF63
:103DE0002C0900209CA40000A0A4000080B584B091
:103DF00000AF78607868FFF7D3F81F4B00221A7085
:103E00001E4B00221A60002000210022FFF726FF2F
:103E1000002000210022FFF721FF0820184900227E
:103E20000023FFF709FF0023FB601CE0FB6858221A
:103E300002FB03F2134B1344BB60BB6803F108029F
:103E4000BB685B680E4811461A4605F027F8034622
:103E5000002B05D1094BBA681A60FB68DBB206E09B
:103E6000FB680133FB60FB68052BDFD9062318468E
:103E70001037BD4680BD00BF310900202C0900204D
:103E80003C090020F4A4000080B485B000AF786045
:103E90000023FB6011E00F4B1A68FB680433DB0062
:103EA0001344BB60BB681A687B689A4202D9BB683E
:103EB0001B6809E0FB680133FB60064B1B68DA698D
:103EC000FB689A42E7DC002318461437BD465DF8CC
:103ED000047B70472C09002080B487B000AFF860E5
:103EE000B9607A60FB6803F10473DA00BB681344BD
:103EF0009B007B617B697A681A601C37BD465DF860
:103F0000047B704780B485B000AFF860B9607A6018
:103F1000FB681A68BB68DB431A407B681A43FB687E
:103F20001A601437BD465DF8047B704780B582B0D7
:103F300000AF786039607A68264B9A4207D07A6879
:103F4000254B9A4203D02548712102F09BFA3B6829
:103F5000DB683F2B03D92148752102F093FA3B68B7
:103F60005B680F2B03D91D487D2102F08BFA3B685B
:103F70001B78DA073B685B789B0713431A463B685C
:103F80005B681B061A433B681B7A1B021A433B689B
:103F90005B7A1B011A437B681A603B689B7A1B079C
:103FA0001A463B68DB7A1B041A433B68DB681B023A
:103FB000134343F0807343F0B0037A6853607A6828
:103FC0003B681B7C104600211A46FFF785FF083727
:103FD000BD4680BD001000400014004004A7000052
:103FE00080B584B000AFF860B960FA71BB71FA684F
:103FF000124B9A4208D0FA68114B9A4204D01148E9
:1040000040F21B1102F03EFABB68022B04D90D48A6
:104010004FF48F7102F036FAFA68BB79DB00104674
:1040200008211A46FFF76EFFBB681A02FB791A4394
:10403000FB68DA611037BD4680BD00BF001000404C
:104040000014004004A7000080B487B000AFF860FF
:10405000B9607A60FB6803F10473DA00BB6813444B
:104060009B007B617B697A681A601C37BD465DF8EE
:10407000047B704780B582B000AF78600B46FB7060
:104080007B681B7D032B03D95B48632102F0FAF99F
:104090007B689B7F1F2B03D95748642102F0F2F9FC
:1040A000FB78002B01D000F08BFB7B681B7D184652
:1040B00000F032F9514B7A68527891007A68927820
:1040C00011437A68926811437A68D26811437A681A
:1040D000D278520211437A681279920211437A68B7
:1040E0005279520311437A689279520411437A68E3
:1040F000D279120411437A68527C92050A431A60FD
:104100007B681B781846002100F0E8F83B4B7A6882
:10411000127E11467A68527E920011437A68927E2E
:10412000920111437A68D27E520011437A68127F5D
:10413000120111437A68527F120211437A68927F0A
:10414000920211437A68126A11437A6892F8242025
:10415000120511437A6892F82520920511437A6876
:10416000926A0A439A60254B7A68928D11467A6862
:1041700092F83B20920211437A6892F83C20920315
:1041800011437A6892F83D20920411437A6892F8BC
:104190003E20920511437A6892F834205200114370
:1041A0007A6892F83520920011437A6892F83620A6
:1041B000D20011437A6892F83720120111437A68CD
:1041C00092F83820520111437A6892F8392092010E
:1041D00011437A6892F83A20D2010A43DA607B6888
:1041E0001B6B184600F086FA044B7A68127C1A6141
:1041F0000837BD4680BD00BF18A7000000C00840BA
:1042000080B588B000AF786039600023FB6101237E
:10421000BB613F237B617B68002B03D12B4802F0FD
:1042200083FD78607A682A4B9A4203D92948E221B3
:1042300002F028F93B68002B03D03A687B689A4269
:1042400004D92448E52102F01DF908E007E0FB69E4
:104250000133FB61FB69012202FA03F3BB613B6896
:10426000BA6902FB03F37A68B2FBF3F27B690133AC
:104270009A4202D9FB69062BE9D93B68BA6902FB6D
:1042800003F37A68B2FBF3F3013B7B61124B5B688B
:1042900023F47F2323F4E0633B61FB691A027B690B
:1042A0001B0313433A6913433B610B4B3A695A6052
:1042B0007B690133BA6902FB03F37A68B2FBF3F35B
:1042C000FB60FB6818462037BD4680BD700628009D
:1042D000FEFFFF0118A7000000C0084080B584B0B1
:1042E00000AF02460B46FA71BB710A4B1B6823F004
:1042F0000303FB60FB79FA681343FB60054BFA6824
:104300001A60BB79002B01D000F00CFA1037BD46C3
:1043100080BD00BF00C0084080B584B000AF034638
:10432000FB71FB79032B04D90A4840F2511102F0CA
:10433000A9F8094B5B6823F44003FB60FB799B05FC
:10434000FA681343FB60044BFA685A601037BD46A5
:1043500080BD00BF18A7000000C0084080B584B031
:1043600000AF02460B46FA71BB71FB79002B16D0E9
:10437000012B22D1BB79032B04D9144840F28111BF
:1043800002F080F8124B5B6823F00303FB60BB79FB
:10439000FA681343FB600E4BFA685A6013E00C4B4B
:1043A0005B6823F07003FB60BB791B01FA68134361
:1043B000FB60074BFA685A6005E0044840F2991127
:1043C00002F060F800BF1037BD4680BD18A700009E
:1043D00000C0084080B584B000AF78600023FB6067
:1043E0000AE0FB685B017A6813441846F96800F03C
:1043F00009F8FB680133FB60FB680F2BF1D910371C
:10440000BD4680BD80B584B000AF786039603B6840
:104410000F2B04D970484FF4EF7102F033F87B682A
:10442000DB7B3F2B04D96C4840F2DF1102F02AF805
:104430007B681B7CDBB25BB2002B04DA66484FF46E
:10444000F07102F01FF87B685B7CDBB25BB2002B83
:1044500004DA614840F2E11102F014F87B685B8AEB
:10446000B3F5805F04D35C4840F2E51102F00AF82E
:104470007B685B68B3F5C03F10D13B68022B0DD061
:104480003B68032B0AD03B68042B07D03B68052B05
:1044900004D051484FF4F57101F0F4FF7B681B7AAA
:1044A000032B10D13B680C2B0DD03B680D2B0AD091
:1044B0003B680E2B07D03B680F2B04D0464840F2D8
:1044C000EF1101F0DFFF7B681B7A032B10D13B68F3
:1044D000002B0DD03B68012B0AD03B68022B07D084
:1044E0003B68032B04D03C484FF4FA7101F0CAFF3B
:1044F0003A4B9A6B3B685B00032101FA03F3DB4301
:104500001340FB607B681B7A1A463B685B0002FA2B
:1045100003F3FA681343FB60304BFA689A633B6815
:10452000D8B27B68D97B7B681A7C7B685B7C00F0A7
:104530005DF82A497B685B7B5A047B689B7B9B0404
:104540001A437B689B8A1A437B68DB8A1A437B6821
:104550005B681A437B685B7ADB041A433B682C3345
:104560001B010B445A601D497B68DA697B689B7AA2
:104570005B041A437B681B7B9B041A437B68DB7AD2
:10458000DB041A433B681B010B4403F532731A60CA
:104590003B68D9B27B685A8A7B681B8B08461146F8
:1045A0001A4600F059F87B689B780D4839681A461E
:1045B000FFF74AFD7B685B780A4839681A46FFF7BF
:1045C00043FD7B681B78084839681A46FFF73CFDB5
:1045D0001037BD4680BD00BF18A7000000C00840CE
:1045E0004CC0084054C0084018C0084080B582B094
:1045F00000AFF871B9717A713B71BB793F2B04D967
:10460000134840F2DE2101F03DFF7B795BB2002BC5
:1046100004DA0F4840F2DF2101F034FF3B795BB24E
:10462000002B04DA0A484FF4387101F02BFF0949D6
:10463000FB79B8797A79920110433A7952030243AF
:104640002C331B010B441A600837BD4680BD00BFE8
:1046500018A7000000C0084080B584B000AF134622
:104660000246FA710A46BA807B80BB88B3F5805F48
:1046700004D31E484FF4457101F004FFFB790F2B62
:1046800004D91A4840F2163101F0FCFE184AFB79B1
:104690002C331B0113445B6823F47F6323F00F0367
:1046A000FB60BB88FA681343FB60114AFB792C332B
:1046B0001B011344FA685A600D4AFB791B0113442D
:1046C00003F532731B681B0C1B04FB607B88FA68C4
:1046D0001343FB60064AFB791B01134403F5327355
:1046E000FA681A601037BD4680BD00BF18A70000E9
:1046F00000C0084080B582B000AF78607B680F2BA7
:1047000004D9064840F28B3101F0BCFE044B7A68B4
:1047100002F00F021A630837BD4680BD18A70000DB
:1047200000C0084080B400AF00BF0A4B1B6D03F00F
:104730002003002BF9D1074B01225A6100BF054B22
:104740001B6D03F02003002BF9D1BD465DF8047BFF
:10475000704700BF00C0084080B400AF00BF0A4BE4
:104760001B6D03F02003002BF9D1074B02225A6185
:1047700000BF054B1B6D03F02003002BF9D1BD4694
:104780005DF8047B704700BF00C0084080B400AFF4
:1047900000BF0A4B1B6D03F02003002BF9D1074B20
:1047A00008225A6100BF054B1B6D03F02003002B4C
:1047B000F9D1BD465DF8047B704700BF00C00840DA
:1047C00080B483B000AF374B0022DA64354B364AF1
:1047D0005A64344B334AD26842F00102DA6000BFB7
:1047E000304B1B6D03F02003002BF9D12D4B0A2217
:1047F0005A612C4B00221A602A4B00229A60294BE6
:104800000022DA60274B00221A61264B00229A61AF
:10481000244B00229A63234B0022DA63214B0022AF
:104820005A6500237B6018E01E4A7B682C331B010D
:10483000134400221A601B4A7B682C331B0113446B
:1048400000225A60174A7B681B01134403F5327338
:1048500000221A607B6801337B607B680F2BE3D9F1
:1048600000237B600FE00F4B7A684032002143F851
:1048700032100C4A7B684033DB00134400225A603C
:104880007B6801337B607B680F2BECD900BF054B45
:104890001B6D03F02003002BF9D10C37BD465DF8EA
:1048A000047B704700C00840FFFF7F0080B483B0E6
:1048B00000AF786039607B681B6C03F00103002B4C
:1048C00000D006E000BF7B685A6C3B681340002BA9
:1048D000F9D10C37BD465DF8047B704780B586B0D2
:1048E00000AFF860B9607A607B68002B04D1224881
:1048F00040F2071101F0C6FDBB68002B17D1FA6822
:104900001E4B9A4202D11E4B7B610CE0FA681D4B94
:104910009A4202D11C4B7B6105E0174840F23311EB
:1049200001F0B0FD25E0786902F0FEF9B860BB68DF
:104930005A017B68B2FBF3F33B613B69203B3B616F
:104940003B69DB003B613A6947F6F8739A4204D948
:1049500009484FF4A07101F095FD3A6947F6F873E4
:1049600013403B61F8680421FFF7A0FFFB683A6938
:10497000DA601837BD4680BD30A70000004008400F
:1049800080071400004408408017160080B483B0EC
:1049900000AF78600B46FB70FB78002B08D000BF9F
:1049A0007B685B6C002BFBD17B6801221A6402E000
:1049B0007B6800221A640C37BD465DF8047B7047A3
:1049C00080B582B000AF786039607A681D4B9A423A
:1049D00008D07A681C4B9A4204D01C4840F2CB1194
:1049E00001F050FD78680221FFF760FF7B680A2222
:1049F0005A6078680121FFF7C9FF7B681B6823F0C4
:104A00001C023B681B7B1A433B685B7B1A433B6879
:104A10009B7B1A437B681A603B685A683B689B68BB
:104A2000786811461A46FFF759FF3B681B781A460B
:104A30007B685A6078680021FFF7A8FF0837BD46F9
:104A400080BD00BF004008400044084030A700007F
:104A500080B582B000AF78607A68194B9A4208D06E
:104A60007A68184B9A4204D017484FF4F97101F054
:104A700009FD78680121FFF789FF7B68EA225A6007
:104A80007B6800221A607B680022DA607B68002263
:104A90001A617B6800225A617B6800229A637B68F6
:104AA00040F2F9725A637B680022DA637B68002265
:104AB0005A6578680021FFF769FF0837BD4680BD59
:104AC000004008400044084030A7000080B485B092
:104AD00000AFF860B9607A60FB681A68BB68DB43B6
:104AE0001A407B681A43FB681A601437BD465DF8AC
:104AF000047B704780B586B000AFF860B9607A601B
:104B00007B68002B04D1204840F2E11101F0BAFC8F
:104B1000BB68002B03D11D4802F006F9B860BB68E2
:104B20005B007B617A687B691344013B7B617A6936
:104B30007B68B2FBF3F37B617B69043B7B617B6940
:104B40009B017B617B69C0337B617B6923F0FF0341
:104B50007B617B6923F4FF1323F4FE53002B04D005
:104B6000094840F2052101F08DFC7A69084B134099
:104B70007B61FB681433184605497A69FFF7A6FF85
:104B80001837BD4680BD00BF48A700004081040023
:104B9000C0FF1F0080B582B000AF786039607A68CE
:104BA0002E4B9A420CD07A682D4B9A4208D07A68E4
:104BB0002C4B9A4204D02C4840F2912101F062FC27
:104BC000786800F053F87B681A683B681B8A43F0EA
:104BD00001039BB219463B689B7B002B02D04FF42C
:104BE000806300E000230B431A437B681A607B68F4
:104BF0001A683B681B7D002B02D04FF0005300E089
:104C000000231A437B681A603B689B7C002B07D00B
:104C10003B68DB7C43F01003DBB21A467B689A6585
:104C20003B681B7B43F480527B685A603B685A6840
:104C30003B689B68786811461A46FFF75BFF3B6844
:104C40005B7B002B02D07B681022DA603B681B780C
:104C50001A467B68DA600837BD4680BD00C0004058
:104C600000C4004000C8004048A7000080B582B0E2
:104C700000AF78607A68254B9A4214D07A68244B4A
:104C80009A4210D07A68234B9A420CD07A68224B11
:104C90009A4208D07A68214B9A4204D0204840F2C8
:104CA000713101F0EFFB7B6840F6AA62DA607B6845
:104CB00000221A607B6841F205025A607B6800227C
:104CC0009A607B6800225A617B680022DA647B6804
:104CD00041F6F9729A647B6800225A657A680B4B38
:104CE0009A4202D17B6800221A657B6800229A658D
:104CF0007A68074B9A4203D07A68064B9A4202D1EF
:104D00007B680022DA650837BD4680BD00C00040E0
:104D100000C4004000C8004000E0004000E4004043
:104D200048A7000080B483B000AF0346FB71084B76
:104D300097F907205209F97901F01F01012000FAC3
:104D400001F143F822100C37BD465DF8047B704733
:104D500000E100E080B500AF03F0BEFB80BD00BF06
:104D600080B400AF72B6084B1B68B3F1FF3F04D0AC
:104D7000054B1B685A1C044B1A60034B1B681846F2
:104D8000BD465DF8047B7047780B002080B483B08B
:104D900000AF0C4B1B68002B0DD00A4B1B685A1E32
:104DA000084B1A60074B1B687B607B68002B00D1A7
:104DB00062B67B6800E0002318460C37BD465DF8FC
:104DC000047B7047780B002080B400AF034B1B6A54
:104DD0001846BD465DF8047B704700BF00C0084020
:104DE00080B400AF034B9B6A1846BD465DF8047B58
:104DF000704700BF00C0084080B483B000AF786047
:104E0000064B7A6802F00F02A03253F8223018469F
:104E10000C37BD465DF8047B704700BF00C00840FA
:104E200080B483B000AF7860034B7A685A640C3763
:104E3000BD465DF8047B704700C0084080B483B075
:104E400000AF7860054B054AD16C7A680A43DA6492
:104E50000C37BD465DF8047B704700BF00C00840BA
:104E600080B483B000AF7860054B054AD16C7A6896
:104E7000D2430A40DA640C37BD465DF8047B7047C4
:104E800000C0084080B483B000AF064BDB6C7B6091
:104E9000044B1A6C7B68134018460C37BD465DF80E
:104EA000047B704700C0084080B500AFFFF752FF99
:104EB0001120052102F0F6F81248032102F0F2F861
:104EC0001148012102F0EEF81048012101F0AEFE78
:104ED0000F48012101F0AAFE0E48012101F0A6FEB3
:104EE0000D48012101F0A2FE0C48012101F09EFEB7
:104EF0000B48012101F09AFE0948012101F01CFD37
:104F000080BD00BF0200180003001A0040810400A9
:104F100000D204000092040000A20400004302003A
:104F20007006280080B500AF0220002102F002FDCB
:104F3000022008210022002302F0C0FD02200921E6
:104F40000022002302F0BAFD02200A2100220023E1
:104F500002F0B4FD02200B210022002302F0AEFD7E
:104F600080BD00BF80B500AF0A48002100220023A9
:104F7000FFF736F80848002100220023FFF730F839
:104F800004480649FEF7D2FF03480449FEF7CEFF66
:104F900080BD00BF001000400014004098A7000032
:104FA00090B585B000AF0346FB71544B1B78002BC6
:104FB00003D053480121FFF75DF8FB79002B37D070
:104FC000FFF7CAFB00BFFFF7FFFE034603F0100325
:104FD000002BF8D1FFF7DAFB00200421FFF710F9CE
:104FE00000200021FFF7BAF94648FFF7F3F9464BD6
:104FF0001B88082037211A46FFF72EFB424B5B889F
:10500000092037211A46FFF727FB3F4B9B880A20D0
:1050100037211A46FFF720FB3B4BDB880B2037215B
:105020001A46FFF719FB4FF48030FFF719FF1EE017
:10503000FFF792FB00BFFFF7C7FE034603F0100324
:10504000002BF8D14FF48030FFF7EAFEFFF79EFB0C
:1050500000204021FFF7D4F800200321FFF77EF95C
:105060002A48FFF7B7F94FF48030FFF7E7FE112029
:10507000FFF758FEFFF756FB204B1B78002B3AD06A
:105080001E4B00221A7000BF214B1B6A03F0020363
:10509000002BF9D00023FB730EE0FC7BFB7B184652
:1050A000FFF7AAFE03469BB2013B9AB2164B23F8C8
:1050B0001420FB7B0133FB73FB7B032BEDD9124BDD
:1050C0001B88082037211A46FFF7C6FA0E4B5B886B
:1050D000092037211A46FFF7BFFA0B4B9B880A209D
:1050E00037211A46FFF7B8FA074BDB880B20372128
:1050F0001A46FFF7B1FA1437BD4690BD880000206C
:10510000ACA70000ECA70000BC0A0020ECA900003E
:1051100000C0084080B582B000AFFFF7B3FE034681
:1051200003F48033002B42D04FF48030FFF778FE39
:10513000294B00221A702EE0274B1B78DBB2274A3E
:10514000D35C83F00103DBB2002B00D01CE0FFF73F
:1051500047FE7860204B1B78DBB21A46204B7968FB
:1051600043F822101C4B1B78DBB21A461D4B53F838
:1051700022207B689A4207D2174B1B78DBB21A4673
:10518000184B796843F82210134B1B78DBB20133BC
:10519000DAB2114B1A70104B1B78DBB20F2BCBD944
:1051A000114B1B68002B02D00F4B1B689847FFF771
:1051B00069FE034603F47063002B0AD04FF470605D
:1051C000FFF72EFE094B1B68002B02D0074B1B6814
:1051D00098470837BD4680BDB80A00205CA700008C
:1051E000700A002048000020B00A0020B40A002005
:1051F000B0B491B000AF4FF0FF33BB63EC237B63DF
:105200004F4B07F118041D460FCD0FC495E803005E
:1052100084E803004B4B3C1D1D460FCD0FC42B688B
:1052200023600123FB6344E0FB6B9B0007F140001C
:10523000034453F83C3C5A1E434B53F822301A02A5
:10524000FB6B9B0007F140010B4443F8282CFB6BE0
:105250009B0007F14002134453F8282CFB6B9B0082
:1052600007F14000034453F83C3C591E374B53F8B8
:105270002130B2FBF3F2FB6B9B0007F140010B44C2
:1052800043F8282CFB6B9B0007F14002134453F8B2
:10529000282C7B6B9A4209D2FB6B9B0007F14000E4
:1052A000034453F8283C7B63FB6BBB63FB6B01330C
:1052B000FB63FB6B042BB7DDBB6BB3F1FF3F02D18C
:1052C0004FF0FF3336E0BB6B013B1B013B633A6B96
:1052D000BB6B013B9B0007F140010B4453F8283C9A
:1052E000C3F58073D900BB6B9B0007F140000344FA
:1052F00053F8283CC3F58073B1FBF3F3D31A3B6337
:10530000BB6B01339B0007F140010B4453F8283C71
:10531000C3F58073DA00BB6B9B0007F140000344C8
:1053200053F8283CC3F58073B2FBF3F23B6B134494
:105330003B633B6B18464437BD46B0BC704700BF6B
:105340006CA7000084A70000700A0020480000201D
:1053500080B582B000AF0346FB71FFF701FDFFF798
:10536000A3FDFFF7DFFDFFF7FDFDFB791846FFF713
:1053700017FEFFF70BFD0837BD4680BD80B483B034
:1053800000AF7860002318460C37BD465DF8047BFB
:10539000704700BF80B483B000AF7860FEE700BF05
:1053A00080B483B000AF786039603B684FF400523E
:1053B0005A60002318460C37BD465DF8047B7047E1
:1053C00080B483B000AF7860012318460C37BD4627
:1053D0005DF8047B704700BF80B485B000AFF86013
:1053E000B9607A60002318461437BD465DF8047B27
:1053F000704700BF80B586B000AFF860B9607A60D2
:1054000000237B6111E0FDF745FA38613B69B3F198
:10541000FF3F09D0BB685A1CBA603A69D2B21A7011
:105420007B6901337B6100E004E07B685A1E7A608F
:10543000002BE8D17B69002B02DC4FF0FF3300E04A
:105440007B6918461837BD4680BD00BF90B585B052
:1054500000AF7860184B1B68002B02D1164B174A1F
:105460001A60154B1B68FB60134B1A687B681A4463
:10547000EFF308831C4623469A4212D9104B1B684F
:105480009B68184603F0F8FB04460E4803F0E5FD60
:10549000034620460B491A4600F016F8012003F097
:1054A000D7FB054B1A687B681A44034B1A60FB68EC
:1054B00018461437BD4690BDC40A0020F86B002082
:1054C000F4000020ECAB000080B586B000AFF860BF
:1054D000B9607A6000237B6109E0BB685A1CBA603E
:1054E0001B781846FDF7C8F97B6901337B617A693F
:1054F0007B689A42F1DB7B6818461837BD4680BD51
:1055000080B483B000AF0346FB71084B97F90720C6
:105510005209F97901F01F01012000FA01F143F865
:1055200022100C37BD465DF8047B704700E100E0B7
:1055300080B483B000AF0346FB71094B97F9072095
:105540005209F97901F01F01012000FA01F16032DE
:1055500043F822100C37BD465DF8047B704700BF4E
:1055600000E100E080B400AF72B6084B1B68B3F1F5
:10557000FF3F04D0054B1B685A1C044B1A60034BB9
:105580001B681846BD465DF8047B7047780B002009
:1055900080B483B000AF0C4B1B68002B0DD00A4BBE
:1055A0001B685A1E084B1A60074B1B687B607B68A0
:1055B000002B00D162B67B6800E0002318460C3750
:1055C000BD465DF8047B7047780B002080B400AFC7
:1055D000034B5B681846BD465DF8047B704700BF0F
:1055E0000000084080B483B000AF7860034B7A6855
:1055F0009A610C37BD465DF8047B70470000084097
:1056000080B483B000AF7860054B054AD1697A68F1
:10561000D2430A40DA610C37BD465DF8047B70471F
:105620000000084080B483B000AF7860054B054AA5
:10563000D1697A680A43DA610C37BD465DF8047BAC
:10564000704700BF0000084080B400AF034B1B69E7
:105650001846BD465DF8047B704700BF0000084057
:1056600080B584B000AF78600023FB600023BB608E
:10567000FFF778FF02E0FB680133FB60FB68032B58
:105680000ADC1649FA6813469B001344DB000B44FE
:1056900018339B79002BEED1FB68042B02D1104B01
:1056A000BB6014E07B68002B0FD00C49FA681346EE
:1056B0009B001344DB000B44183301229A71FA68F3
:1056C0007B681A600023BB6001E0064BBB60FFF7FC
:1056D0005FFFBB6818461037BD4680BDC80A002072
:1056E000011000F0041000F080B500AF1D4B1B78D6
:1056F000002B01D0002332E01A4B01221A701A4805
:10570000012101F093FA1948022101F0CBFC18485D
:10571000082101F011F91648012101F087FA154816
:1057200002F042FE0720FFF76BFF0720FFF75AFF4A
:1057300002F062FE1E20FFF7FBFE1E20FFF7E0FED8
:105740000D480021A02203F0C1FB0C4B00221A706F
:105750000B4B00221A700B4B00221A6000231846D4
:1057600080BD00BF720B0020004302000200180041
:105770007016100008AC0000C80A0020700B002052
:10578000710B00206C0B0020B0B58EB000AFF8603C
:105790007A603B600B46FB720023FB62FB68032BC5
:1057A00001D97F4B6EE1FFF7DDFE7E49FA681346B3
:1057B0009B001344DB000B4418339B7983F00103F7
:1057C000DBB2002B03D0FFF7E3FE774B5AE17B6897
:1057D000002B0AD13B68002B03D03B68F868B96CFA
:1057E0009847FFF7D5FE00234CE1FFF7EFFE386343
:1057F0006C49FA6813469B001344DB000B441833D2
:105800003A681A607B681A464FF00003DD0345EAE8
:105810005245D40314F57A6245F100031046194647
:105820004FF4FA524FF0000302F02EFF02460B46EF
:10583000104619465B4CFA6813469B001344DB0084
:1058400023440833C3E90001FB7A012B27D17B688D
:105850004FF47A7202FB03F15248FA6813469B0038
:105860001344DB0003440833D3E900231346F42236
:1058700002FB03F3CB1A19464A48FA6813469B0009
:105880001344DB000344103319604649FA68134699
:105890009B001344DB000B4410337A225A604149C9
:1058A000FA6813469B001344DB000B440833D3E92A
:1058B0000023501C43F100013A4CFA6813469B0048
:1058C0001344DB002344C3E900013649FA68134658
:1058D0009B001344DB000B44183301221A71314939
:1058E000FA6813469B001344DB000B441833FA7A22
:1058F000DA712C49FA6813469B001344DB000B4411
:105900002033BA6C1A60294B1B78002B03D0FFF7A9
:105910003FFE0023B6E0264B1B68B3F1FF3F04D0E7
:10592000234B1B685A1C224B1A60224B1B7883F0B6
:105930000103DBB2002B43D03B6B23F07F421E4BB5
:105940001A600220FFF74EFE1649FA6813469B00C4
:105950001344DB000B44D3E90023C7E90823174BAA
:10596000FB61FB691A464FF00003D7E90801994231
:1059700008BF904201D202460B461346BB613A6B08
:10598000BB69134423F07F430020194602F0D2FC88
:105990000220FFF747FE074B01221A7066E000BFA6
:1059A000021000F0C80A0020031000F0700B002065
:1059B0006C0B0020710B0020680B00209BFFFF0088
:1059C000324B1B68012B51D13149FA6813469B00B9
:1059D0001344DB000B44183300221A710220FFF736
:1059E0000FFE3B6B1A022B4B1B681B02D31A1B0AC0
:1059F0007B637A6B6FF07F439A4201D100237B6314
:105A0000786B00F09DF800F0EFF9FB6A002B09D1EC
:105A10001F49FA6813469B001344DB000B441833FC
:105A200001221A71FB6A0133FB62386B00F00EFA37
:105A3000FFF7CCFD38633B6B1A02164B1B681B0249
:105A4000D31A1B0A7B63002002F04EFC03461A02A5
:105A5000104B1B681B02D31A1B0A7B610E4B1B7871
:105A6000002B03D07A6B7B699A42B7D8074B1B682F
:105A7000002B04D0054B1B685A1E044B1A60FFF71D
:105A800087FD002318463837BD46B0BD6C0B00209B
:105A9000C80A0020680B0020710B002080B584B07C
:105AA00000AFFFF75FFDFFF7CFFDB860BB6803F005
:105AB0000203002B39D01F4B01221A70FFF786FD1D
:105AC000F8600220FFF79CFDFB681A021A4B1B6866
:105AD0001B02D31A1B0A7B60786800F031F800F0D3
